:1000000056C000006EC000006CC000006AC0000056
:1000100068C0000066C0000064C0000062C000004C
:1000200060C000005EC000005CC000005AC000005C
:1000300058C0000056C0000054C0000052C000006C
:1000400050C00000BDC100004CC000004AC000000C
:1000500048C0000046C0000044C0000042C000008C
:1000600040C000003EC000003CC000003AC000009C
:1000700038C0000036C0000034C0000032C00000AC
:1000800030C000002EC000002CC000002AC00000BC
:1000900028C0000026C0000024C0000022C00000CC
:1000A00020C000001EC000001CC00000D4011124AC
:1000B0001FBECFEFDAE0DEBFCDBF11E0A0E0B1E0C0
:1000C00001C01D92A639B107E1F710E0CEEAD0E0F9
:1000D00003C02297FE01B3D5CC3AD107D1F7C5D2E0
:1000E000B2C58ECFDF93CF93CDB7DEB7EFE6F0E0AA
:1000F00082E08083A1E8B0E0E1E8F0E080818960FF
:100100008C93E8E8F0E088E893E191838083CF91D5
:10011000DF910895DF93CF93CDB7DEB781E0809371
:10012000000180E590E0909302018093010110921C
:10013000030181E08093040181E08093050182E066
:1001400080930A0181E590E090930C0180930B016C
:1001500081E080930D0181E080930E0181E0809326
:100160000F0183E08093140182E590E090931601E3
:100170008093150182E08093170181E0809318013C
:1001800081E08093190184E080931E0183E590E073
:100190009093200180931F0183E08093210181E0EF
:1001A0008093220181E08093230185E080932801E0
:1001B00084E590E090932A018093290184E0809364
:1001C0002B0181E080932C0181E080932D0186E05A
:1001D0008093320185E590E0909334018093330160
:1001E00085E08093350181E08093360181E0809342
:1001F000370187E080933C0186E590E090933E01D3
:1002000080933D0186E080933F0181E0809340012F
:1002100081E08093410188E08093460187E590E08A
:10022000909348018093470187E08093490181E0E2
:1002300080934A0181E080934B0189E080935001D3
:1002400088E590E090935201809351011092530100
:1002500083E080935401109255018AE080935A0103
:1002600089E590E090935C0180935B0181E080934D
:100270005D0183E080935E0110925F018BE08093CB
:1002800064018AE590E0909366018093650182E0C5
:100290008093670183E080936801109269018CE08C
:1002A00080936E018BE590E09093700180936F01D5
:1002B00083E08093710183E0809372011092730157
:1002C0008DE0809378018CE590E090937A018093A3
:1002D000790184E080937B0183E080937C0110921C
:1002E0007D018EE0809382018DE590E09093840102
:1002F0008093830185E08093850183E0809386016C
:10030000109287018FE080938C018EE590E09093AE
:100310008E0180938D0187E080938F0183E080932D
:10032000900110929101CF91DF910895DF93CF93C7
:10033000CDB7DEB728970FB6F894DEBF0FBECDBF9E
:100340009A8389837C836B8389819A81813091052B
:1003500011F58B819C812FEF8F3F9207E1F480E0B4
:1003600091E098878F838EE090E09E838D830DC00F
:100370008F81988535D28F8198850A9698878F834B
:100380008D819E8101979E838D838D819E812FEF2C
:100390008F3F920769F728960FB6F894DEBF0FBE1D
:1003A000CDBFCF91DF910895DF93CF93CDB7DEB767
:1003B00081E090E06FEF7FEFB9DFCF91DF9108959B
:1003C0001F920F920FB60F9211242F933F934F93CA
:1003D0005F936F937F938F939F93AF93BF93EF93AD
:1003E000FF93DF93CF930F92CDB7DEB7198212C080
:1003F0008981882F90E0880F991F9C01220F331F5D
:10040000220F331F820F931F80509F4FA9D28981E3
:100410008F5F898389818F3058F30F90CF91DF915F
:10042000FF91EF91BF91AF919F918F917F916F91CC
:100430005F914F913F912F910F900FBE0F901F90A2
:100440001895DF93CF93CDB7DEB76C970FB6F894BE
:10045000DEBF0FBECDBFE5E2F0E08FEF8083EBE2C1
:10046000F0E01082E4E2F0E08FEF8083E7E2F0E07A
:100470008FEF8083EAE2F0E08FEF8083EDE2F0E03F
:100480008FEF8083E0E3F0E08FEF808380E090E8FF
:10049000ABEBB5E4898F9A8FAB8FBC8F698D7A8D6A
:1004A0008B8D9C8D20E030E04AEF52E43BD3DC01A1
:1004B000CB018D8B9E8BAF8BB88F6D897E898F8999
:1004C000988D20E030E040E85FE3ABD288232CF445
:1004D00081E090E09C8B8B8B3BC06D897E898F89FE
:1004E000988D20E03FEF4FE757E418D318163CF5FE
:1004F000698D7A8D8B8D9C8D20E030E040E251E457
:1005000011D3DC01CB01BC01CD018FD2DC01CB01C9
:100510009C8B8B8B0FC08CE090E09A8B898B8989A8
:100520009A890197F1F79A8B898B8B899C8901971E
:100530009C8B8B8B8B899C89009769F713C06D8985
:100540007E898F89988D71D2DC01CB019C8B8B8B3E
:100550008B899C89988B8F878F8598890197F1F774
:10056000988B8F87E5E2F0E01082EBE2F0E08FEF0E
:10057000808380E090E8ABEBB5E48B879C87AD8708
:10058000BE876B857C858D859E8520E030E04AEFB7
:1005900052E4C8D2DC01CB018F839887A987BA8740
:1005A0006F81788589859A8520E030E040E85FE3B7
:1005B00038D288232CF481E090E09E838D833BC069
:1005C0006F81788589859A8520E03FEF4FE757E472
:1005D000A5D218163CF56B857C858D859E8520E01F
:1005E00030E040E251E49ED2DC01CB01BC01CD0100
:1005F0001CD2DC01CB019E838D830FC08CE090E088
:100600009C838B838B819C810197F1F79C838B83E7
:100610008D819E8101979E838D838D819E81009720
:1006200069F713C06F81788589859A85FED1DC01D1
:10063000CB019E838D838D819E819A83898389815D
:100640009A810197F1F79A838983ABE2B0E0EBE2FC
:10065000F0E080818F7B8C936C960FB6F894DEBFB0
:100660000FBECDBFCF91DF910895DF93CF93CDB76C
:10067000DEB72E970FB6F894DEBF0FBECDBFF8944D
:10068000E1E6F0E080E88083E1E6F0E088E0808366
:1006900080E090E0AAEFB3E48B879C87AD87BE87AC
:1006A0006B857C858D859E8520E030E04AEF52E4A5
:1006B00039D2DC01CB018F839887A987BA876F81F4
:1006C000788589859A8520E030E040E85FE3A9D10C
:1006D00088232CF481E090E09E838D833BC06F8162
:1006E000788589859A8520E03FEF4FE757E416D259
:1006F00018163CF56B857C858D859E8520E030E065
:1007000040E251E40FD2DC01CB01BC01CD018DD11F
:10071000DC01CB019E838D830FC08CE090E09C8335
:100720008B838B819C810197F1F79C838B838D81D7
:100730009E8101979E838D838D819E81009769F7AD
:1007400013C06F81788589859A856FD1DC01CB01D3
:100750009E838D838D819E819A83898389819A81ED
:100760000197F1F79A838983E1E6F0E080E88083DE
:10077000E1E6F0E085E0808364DECCDCB3DC7894F5
:10078000A3E5B0E0E3E5F0E08081817F8C93A3E511
:10079000B0E0E3E5F0E0808181608C938895A3E58B
:1007A000B0E0E3E5F0E080818E7F8C93F0CFDF93C3
:1007B000CF9300D0CDB7DEB79A838983E981FA81E0
:1007C0001682E981FA8180E590E090878783E9814C
:1007D000FA8182E081870F900F90CF91DF91089589
:1007E000DF93CF9300D0CDB7DEB79A838983E981B9
:1007F000FA811682E981FA8180E590E0908787830B
:10080000E981FA8182E081870F900F90CF91DF918B
:100810000895DF93CF9300D000D0CDB7DEB79B8390
:100820008A836C83EA81FB81958181E08927882313
:1008300021F08C8191E089278C83EA81FB8183817F
:10084000282F30E081E090E0022E02C0880F991F2F
:100850000A94E2F78983EA81FB8184818130B9F4CB
:100860008C81882349F0A5E2B0E0E5E2F0E09081D8
:100870008981892B8C9326C0A5E2B0E0E5E2F0E007
:100880008081982F8981809589238C931BC0EA8170
:10089000FB8184818330B1F48C81882349F0ABE201
:1008A000B0E0EBE2F0E090818981892B8C930AC063
:1008B000ABE2B0E0EBE2F0E08081982F8981809597
:1008C00089238C930F900F900F900F90CF91DF9111
:1008D0000895DF93CF9300D000D00F92CDB7DEB74D
:1008E0009A8389836B83E981FA8110861782E98173
:1008F000FA818B818187E981FA818185282F30E017
:100900003D832C838C819D8181309105B1F02C81B8
:100910003D812230310561F08C819D810097C1F4C9
:10092000E981FA81168289819A8160E072DF10C0C4
:1009300089819A8160E06DDF0BC0E981FA8186814F
:100940008F5FE981FA81868389819A8161E061DF25
:100950000F900F900F900F900F90CF91DF9108950F
:10096000DF93CF9300D000D0CDB7DEB79A838983D1
:10097000E981FA81878190850196E981FA819087E2
:100980008783E981FA818185282F30E03C832B839E
:100990008B819C818130910509F12B813C81223032
:1009A000310581F08B819C810097A1F5E981FA8165
:1009B00087819085803F910568F189819A8161E006
:1009C00088DF28C0E981FA8187819085803591058B
:1009D00008F189819A8161E07CDF1CC0E981FA819C
:1009E00027813085E981FA81818192812817390731
:1009F00088F0E981FA819681E981FA8180819817EE
:100A000028F089819A8160E064DF04C089819A813D
:100A100062E05FDF0F900F900F900F90CF91DF910A
:100A200008952FD008F481E0089557D088F09F579B
:100A300090F0B92F9927B751A0F0D1F0660F771F2A
:100A4000881F991F1AF0BA95C9F712C0B13081F00A
:100A50005ED0B1E008955BC0672F782F8827B85F1C
:100A600039F0B93FCCF3869577956795B395D9F76B
:100A70003EF490958095709561957F4F8F4F9F4F75
:100A80000895990F0008550FAA0BE0E8FEEF16161F
:100A90001706E807F907C0F012161306E407F50772
:100AA00098F0621B730B840B950B39F40A2661F0E6
:100AB000232B242B252B21F408950A2609F4A14089
:100AC000A6958FEF811D811D089557FD9058440F05
:100AD000551F59F05F3F71F04795880F97FB991F9D
:100AE00061F09F3F79F0879508951216130614065A
:100AF000551FF2CF4695F1DF08C0161617061806E7
:100B0000991FF1CF86957105610508940895E894C1
:100B1000BB2766277727CB0197F90895B2DF08F442
:100B20008FEF08950BD078C069D028F06ED018F000
:100B3000952309F05AC05FC01124EACFC6DFA0F3A5
:100B4000959FD1F3950F50E0551F629FF001729F62
:100B5000BB27F00DB11D639FAA27F00DB11DAA1F81
:100B6000649F6627B00DA11D661F829F2227B00DCE
:100B7000A11D621F739FB00DA11D621F839FA00D59
:100B8000611D221F749F3327A00D611D231F849FA9
:100B9000600D211D822F762F6A2F11249F57504000
:100BA0008AF0E1F088234AF0EE0FFF1FBB1F661F9B
:100BB000771F881F91505040A9F79E3F510570F054
:100BC00014C0A6CF5F3FECF3983EDCF38695779593
:100BD0006795B795F795E7959F5FC1F7FE2B880F4F
:100BE000911D9695879597F9089597F99F6780E8E5
:100BF00070E060E008959FEF80EC089500240A946F
:100C00001616170618060906089500240A941216E7
:100C10001306140605060895092E0394000C11F41A
:100C2000882352F0BB0F40F4BF2B11F460FF04C0C7
:100C30006F5F7F4F8F4F9F4F0895EE0FFF1F0590FF
:0A0C4000F491E02D0994F894FFCF21
:00000001FF
